:0600000002003002004086
:03000B00020041AF
:0300130002005593
:03001B000200568A
:0300230002005781
:03002B0002005878
:1000300075A8827589017F07D2D51159D28C013EEE
:100040003220D508D2D5D2A011590152C2D5C2A0B2
:100050001164C28D3232323232EF116FF58CEF31D2
:1000600074F58A22EF5179F58CEF717EF58A229032
:1000700000749322FCFCFCFCFCFCFCFBFBFBFBFB8C
:10008000FBFBFBFBFBFBFBFBFBFBFBFBFBFBFBFBC0
:10009000FBFBFBFBFBFBFBFBFBFBFBFBFBFBFBFBB0
:1000A000FBFBFBFBFBFBFBFBFBFBFBFBFBFBFBFBA0
:1000B000FBFBFBFBFBFBFBFBFBFBFBFBFAFAFAFA94
:1000C000FAFAFAFAFAFAFAFAFAFAFAFAFAFAFAFA90
:1000D000FAFAFAFAFAFAFAFAFAFAFAFAFAFAFAFA80
:1000E000FAFAFAFAFAFAFAFAFAFAFAFAFAFAFAFA70
:1000F000FAFAFAFAFAFAFAFAFAFAFAFAFAF9F9F963
:10010000F9F9F9F9F9F9F9F9F9F9F9F9F9F9F9F95F
:10011000F9F9F9F9F9F9F9F9F9F9F9F9F9F9F9F94F
:10012000F9F9F9F9F9F9F9F9F9F9F9F9F9F9F9F93F
:10013000F9F9F9F9F9F9F9F9F9F9F9F9F9F9F9F830
:10014000F8F8F8F8F8F8F8F8F8F8F8F8F8F8F8F82F
:10015000F8F8F8F8F8F8F8F8F8F8F8F8F8F8F8F81F
:10016000F8F8F8F8F8F8F8F8F8F8F8F8F8F8F8F80F
:10017000F8F8F8F890017993221814100C0804008C
:10018000FDF9F5F1EDE9E5E1DDD9D5D1CDCAC6C27C
:10019000BEBAB6B2AEAAA6A29E9B97938F8B878358
:1001A0007F7B77736F6B6864605C5854504C484435
:1001B000403C3835312D2925211D1915110D090512
:1001C00002FEFAF6F2EEEAE6E2DEDAD6D3CFCBC7EB
:1001D000C3BFBBB7B3AFABA7A3A09C9894908C88C8
:1001E00084807C7874706D6965615D5955514D49A5
:1001F00045413D3A36322E2A26221E1A16120E0B81
:100200000703FFFBF7F3EFEBE7E3DFDBD8D4D0CC5A
:10021000C8C4C0BCB8B4B0ACA8A5A19D9995918D37
:100220008985817D7975726E6A66625E5A56524E14
:100230004A46433F3B37332F2B27231F1B171310EF
:100240000C080400FCF8F4F0ECE8E4E0DDD9D5D1CA
:10025000CDC9C5C1BDB9B5B1ADAAA6A29E9A9692A7
:100260008E8A86827E7B77736F6B67635F5B575383
:100270004F4B4844403C38343090027E9322B5B511
:10028000B5B5B5B5B5B5B5B5B5B5B5B5B5B6B6B61B
:10029000B6B6B6B6B6B6B6B6B6B6B6B6B6B6B6B6FE
:1002A000B6B6B6B6B6B6B6B6B6B6B6B6B6B6B6B6EE
:1002B000B6B6B6B6B6B6B6B6B6B6B6B6B6B6B6B6DE
:1002C000B6B6B6B6B6B6B6B6B6B6B6B6B6B6B7B7CC
:1002D000B7B7B7B7B7B7B7B7B7B7B7B7B7B7B7B7AE
:1002E000B7B7B7B7B7B7B7B7B7B7B7B7B7B7B7B79E
:1002F000B7B7B7B7B7B7B7B7B7B7B7B7B7B7B7B78E
:10030000B7B7B7B7B7B7B7B7B7B7B7B7B7B7B7B87C
:10031000B8B8B8B8B8B8B8B8B8B8B8B8B8B8B8B85D
:10032000B8B8B8B8B8B8B8B8B8B8B8B8B8B8B8B84D
:10033000B8B8B8B8B8B8B8B8B8B8B8B8B8B8B8B83D
:10034000B8B8B8B8B8B8B8B8B8B8B8B8B8B8B8B82D
:10035000B9B9B9B9B9B9B9B9B9B9B9B9B9B9B9B90D
:10036000B9B9B9B9B9B9B9B9B9B9B9B9B9B9B9B9FD
:10037000B9B9B9B9B9B9B9B9B9B9B9B9B9B99003CC
:10038000839322C8CCD0D4D8DCE0E3E7EBEFF3F7DB
:10039000FBFF03070B0F13161A1E22262A2E3236D6
:1003A0003A3E4245494D5155595D6165696D7175DA
:1003B000787C8084888C9094989CA0A4A8ABAFB3E0
:1003C000B7BBBFC3C7CBCFD3D7DBDEE2E6EAEEF2E3
:1003D000F6FAFE02060A0D1115191D2125292D31E7
:1003E00035393D4044484C5054585C6064686C70EA
:1003F00073777B7F83878B8F93979B9FA3A6AAAEF0
:10040000B2B6BABEC2C6CACED2D5D9DDE1E5E9EDF3
:10041000F1F5F9FD0105080C1014181C2024282CF6
:100420003034383B3F43474B4F53575B5F63676BF9
:100430006E72767A7E82868A8E92969A9DA1A5A900
:10044000ADB1B5B9BDC1C5C9CDD0D4D8DCE0E4E803
:10045000ECF0F4F8FC0003070B0F13171B1F232706
:100460002B2F33363A3E42464A4E52565A5E62650A
:10047000696D7175797D8185898D9195989CA0A410
:03048000A8ACB075
:00000001FF
